:1000000075505475514F75524D7553417554547513
:10001000554F755632755734755835757050757122
:100020004F75725475734175745475754F75763389
:100030007577367578397D007E097F0951EF7445F3
:1000400051E2710E746E51E2710E747451E2710ED0
:10005000746551E2710E747251E2710E742051E2B6
:10006000710E745551E2710E747351E2710E746524
:1000700051E2710E747251E2710E746E51E2710EA2
:10008000746151E2710E746D51E2710E746551E24A
:10009000710E743A51E2710E74C051D5710E75A093
:1000A000FF78507970758000E5A0543FB43FF67139
:1000B0000EE5A0543FB43F0280F5710EE5A0543F19
:1000C000B43F0280EA7580FEE5A0543FB43F357529
:1000D00080FDE5A0543FB43F307580FBE5A0543F60
:1000E000B43F2B7580F7E5A0543FB43F267580EFF1
:1000F000E5A0543FB43F217580DFE5A0543FB43FF5
:100100001C0200AF9006008019900606801490062D
:100110000C800F900612800A900618800590061E2B
:100120008000135003A380FAE493BD000D86F0B560
:10013000F01A0851E2DE1202015187F0B5F00D0904
:10014000742A51E2DF030201B80200A5516A0200DD
:10015000367D0151EF744551E2710E746E51E271BA
:100160000E747451E2710E746551E2710E74725125
:10017000E2710E742051E2710E745051E2710E74EE
:100180006151E2710E747351E2710E747351E27138
:100190000E747751E2710E746F51E2710E747251E8
:1001A000E2710E746451E2710E743A51E2710E7490
:1001B000C051D5710E0200A551EF744351E2710E8A
:1001C000746F51E2710E746E51E2710E746751E2F8
:1001D000710E747251E2710E746151E2710E747499
:1001E00051E2710E747551E2710E746C51E2710E30
:1001F000746151E2710E747451E2710E746951E2CE
:10020000710E746F51E2710E746E51E2710E74735F
:1002100051E2710E742151E2710E74C051D5710E0C
:10022000745751E2710E746551E2710E746C51E2B3
:10023000710E746351E2710E746F51E2710E746D40
:1002400051E2710E746551E2710E742051E2710E2B
:10025000747451E2710E746F51E2710E742051E2A8
:10026000710E745851E2710E80FE51EF745351E2D9
:10027000710E746F51E2710E747251E2710E7472EC
:1002800051E2710E747951E2710E742151E2710ED6
:1002900074C051D5710E745451E2710E747251E2F2
:1002A000710E747951E2710E742051E2710E744135
:1002B00051E2710E746751E2710E746151E2710E78
:1002C000746951E2710E746E51E2710E710E710E0D
:1002D000710E710E22F590C2B0C2B1D2B2710EC2CF
:1002E000B222F590D2B0C2B1D2B2710EC2B22274B3
:1002F0003851D5710E740E51D5710E740151D571EE
:100300000E740651D5710E748051D5710E227B3258
:070310007CFFDCFEDBFA229A
:100600004142434445464748494A4B4C4D4E4F5062
:100610005152535455565758595A30313233343554
:0406200036373839F8
:00000001FF
